:020000040000FA
:0600000038EF15F01200BC
:0600080004EF08F01200F5
:060018000CEF08F01200DD
:0610000038EF15F01200AC
:02100600FFFFEA
:0610080095EF0EF012004E
:021016000001D7
:0610180097EF0EF012003C
:06102A000100D02A0000C5
:08103000ED0000000C000000BF
:0810380060EC0EF0A09A6A6A58
:10104000686A706A5AEC0EF0F5EC0DF0DF6ADF505A
:10105000106E116A0C0E105C000E115810E2DF5079
:10106000040DF3CFE9FFF4CFEAFF000EE926040EEA
:10107000EA22EE6AEE6AEE6AEE6ADF2AE8D76D8C43
:101080006E6A6D986D9C68A607D068960101186B12
:101090001D6B1E6B1F6BF7D70101010E316F326F95
:1010A000336B346B256BDF6A030EDF5C11E2EA6A97
:1010B000DF3463EC0EF0EA22EE6AED6AEA6ADF34AE
:1010C0006AEC0EF0EA22EE6AED6AAEEC0DF0ECD7B7
:1010D0000101080E0E6F040E0F6F160E706E0401E4
:1010E000300E026F040E036F080E016F840E006F46
:1010F0000101016B006BE55280EF0DF060EC0EF02A
:10110000010100510BE16D6A696AF5EC0DF06DB6F5
:1011100002D06D86FCD70101010E006F000508E1C9
:101120006DBA06D0686A696A69806988020E006FC4
:101130006850040B05E06950040B02E0689424DB5E
:101140006DB244D06850010B08E06950010B05E016
:1011500073DF0101040E006F68906850100B05E00A
:101160006950100B02E006DB689868AC0FD069ACE0
:1011700005D0FCEC0DF0730E6DEC0DF0689C0101D8
:101180002F5101E02F072F5101E1EFD86850200BBC
:1011900004E06950200B01E0DDDA6850020B0BE03F
:1011A0006950020B08E0FCEC0DF0E6687F0EE66E7D
:1011B00071EC0EF06A6A040E0101E76E0019E8AEE8
:1011C00002D0E73402D0E750005D02E2A19A2ED0AF
:1011D00069A62BD0DF6A040EDF5C27E268A625D063
:1011E0006CCF26F101012651780BE842E842E84233
:1011F000276F689626B504D0275178EC0EF003D0FF
:1012000027517DEC0EF0EA22EF70275102E1C8DA97
:101210000AD0000EE66EE66A260EE66E010EE66E57
:10122000720E6DEC0DF0DF2AD6D7A19AE55280EF51
:101230000DF034EC0EF0FD0EDBA403D0E66AE5EC15
:101240000DF0FD0EDBA204D0010EE66EE5EC0DF014
:10125000FE0EDB50116A700F106E0F0EDFEC0DF0FA
:1012600071EC0DF0FD0EDBCFEFFF020EE15C02E250
:10127000E16AE552E16E80EF0DF034EC0EF0FD0E08
:10128000DB5003E068EC0DF002D09FEC0DF0CBECEE
:101290000DF0D9CFE9FFDACFEAFFEE50ED1003E110
:1012A000F36AF46A28D071EC0DF08CEC0EF0FB0EB2
:1012B000DBCFEEFFFC0EDBCFEDFF71EC0DF0EE525D
:1012C000FA0EDBCFEFFF400E82EC0EF0880E91ECB1
:1012D0000EF0FD0EDB5003E068EC0DF002D09FEC49
:1012E0000DF0EA22EF74DECF10F0DDCF11F010C068
:1012F000F3FF11C0F4FF020EE15C02E2E16AE55285
:10130000E16E80EF0DF034EC0EF0FE0EDB5003E1E9
:1013100042EC0EF009D0A4EC0DF022EC0EF0A4EC9F
:101320000DF0010F22EC0EF0020EE15C02E2E16A28
:10133000E552E16EE5D3DFDB6DA816D053EC0EF07D
:10134000400EEE16EE6AEE6AEE6A53EC0EF0EE7C9C
:10135000BFDBEA22EF74400E106E53EC0EF010501B
:10136000EF1653EC0EF0EF7CCBD30101315122E1AB
:10137000010E316F32511EE1010E326F020E155D0A
:1013800007E1B4DBEE52EF6AB1DBC80EEF6E12007C
:10139000150510E1286BC0DBEE52080EEF6EBCDBCA
:1013A0002EEC0EF0B9DB840EEF6E010E286F8CDB95
:1013B000800EEF6E12000101336B346B020E155D6F
:1013C00006E186EC0EF0ADDB1DEC0EF010D01951ED
:1013D0000401365D01011A510401375904E236C493
:1013E00019F137C41AF161D881DB9BDB7FDBC80EB2
:1013F000EF6E120034EC0EF0000EDE6E040EDD6EA9
:10140000A3DB040DF4CF11F0D9CFE9FFDACFEAFF67
:10141000F350EE261150ED2264DBEF9EFD0EDB5003
:1014200002E18DDB01D054DBEA22DECFEEFFDDCF1F
:10143000EDFF57DBEF9C55DB040EE926000EEA2298
:10144000EF8C020EE15C02E2E16AE552E16E58D3F4
:101450006D98010118BF0DD01DAF09D0020E156F98
:10146000345101E1A8DF0101326B316B120042EF10
:101470000EF0040130AF0DD00101010E156F335194
:1014800001E199DF0101326B316B30510DE1B5EFB4
:1014900009F00101020E156F17DB840EEF6E326B3F
:1014A000316B305101E161DF120060EC0EF0080E8B
:1014B000DF6E0101195D000E1A590AE219C1DFFF42
:1014C000145102E1010E03D0140502E1020E146F63
:1014D000DF50116AE850195D196F11501A591A6FCF
:1014E00005DBEE52DFCFEFFF380E226F040E236FC5
:1014F00018B10DD0DF5017E016C1F6FF17C1F7FF86
:10150000162B000E17230800F55038DBF3D7DF50F9
:101510000AE016C1E9FF17C1EAFF162B000E1723D8
:10152000EF502CDBF4D7E552EBD29EDBF5DAEE522E
:10153000EFCFDFFFDFCF10F0105001011E5D000E76
:101540001F5902E21EC1DFFFDF50106E116AE85022
:101550001E5D1E6F11501F591F6F010EDB6ADF5099
:10156000F36E010EDBCFF4FFF350F45C16E2010ED4
:10157000DB50EA6A380FE96E040EEA22EF50E66E9D
:101580001BC1E9FF1CC1EAFF1B2B000E1C23E55207
:10159000E750EF6E010EDB2AE2D7000ED8801E5511
:1015A000000E1F550DE2B2DBBCDAB6DAEF50400B8D
:1015B00003E143DBC80E02D040DB880EEF6E12D091
:1015C00083DA840EEF6E2051211107E005D021C18E
:1015D000FAFF01012051F96EFADF01011D9F305120
:1015E00001E1C3DE020EE15C02E2E16AE552E16E76
:1015F00087D266DB0101188F5DDB300EE66EE66A8E
:10160000E66A000EE66E040E92DA6D8CDF6A030E57
:10161000DF5C02E2A3DAFBD70BDB020EE66E010E03
:1016200086DA6D9C0101080E0E6F040E0F6F000E1E
:10163000046F040E056F04C106F1076F32C401F197
:10164000015102E1100E0BD0010EE66EE66A010EAA
:10165000E66E010EE66E010E40DA0101200E006F0B
:10166000E5524ED2800E0401305D38E10101C00E1A
:10167000186F04013351030A1AE0010A09E0030A52
:101680002BE10101960E166F260E176F120E1ED05B
:10169000C1DA4F0EF626270EA0DA020E0101B3DAE8
:1016A000F5CF19F1030EAFDAF5CF1AF11200030EE0
:1016B000325D0FE2AFDA510EF626270E8EDA16C132
:1016C000F6FF17C1F7FF0800F5500101196F1A6BFB
:1016D00012000101186B12000101186B1200C4DA2C
:1016E0000401386B396B30511F0B020A11E0030AF9
:1016F0000CE0010A1EE10101188F0401388101018B
:10170000240517E10401388314D00101188F11D08A
:101710000101188F040134BF02D0BBDA01D0BEDA58
:101720003ADAC4DA06E0DDD9EF50040B02E0010E2C
:10173000386F010118AF07D0380E166F040E176FFF
:101740001881020E196F020EE15C02E2E16AE552B5
:10175000E16ED6D170A00CD0DFD9EF50800807E140
:10176000C5D9EF50840803E1D7D98C0EEF6E709085
:10177000689A1200698468986D820101010E256FD4
:1017800010DA750E6DEF0DF00101256B0ADA740E9B
:10179000A4D96D92699468A402D06894FCD7120011
:1017A0008FDA01012D0E2F6FFD0E261539E17E0E09
:1017B0002615E8407F0B040DF3CF04F1F4CF05F1BB
:1017C000000E0427040E052304C106F105C107F12C
:1017D0000675A2D9EF503C0BE842E8420D081EE125
:1017E000DF6A080EDF5C16E297D9020EE926000ECA
:1017F000BFD9EF50E66EDF50EA6A300FE96E040E93
:10180000EA22E552E750EF6E87D986DAEE2AEF2218
:10181000DF2AE7D781D922DA0AD807D023D805D022
:10182000FD0E2615040801E12CD8E55269D101010D
:10183000146B306B336B346B286B156B57D9EF9E81
:101840000E7554D9EF9E0E75F8D9EF9E186B196B73
:101850001A6B1D6B1E6B1F6B4ED8A3D9030E3DD99F
:1018600028EF0AF0020E0101155D02E195EF0AF082
:10187000156B285104E128D98C0EEF6E1200286BED
:1018800012001EDA33D9EF50400B01E0010EDF6E7B
:1018900001010E75080E005D08E132C46EFF6E5046
:1018A00002E0100E01D0040E006F150513E11ED9E1
:1018B00038D9FBDD020E0101145D03E117D9840E56
:1018C00007D0DF5003E112D9C80E02D00FD9880E1D
:1018D000EF6E0FD01DAF0CD02051211107E005D0C5
:1018E00021C1FAFF01012051F96EFADF01011D9FAC
:1018F000156BE55205D104013051600BE842E84216
:10190000E842E842E842000901E0120031510C0AC5
:1019100045E00B0A3FE00C0A31E0010A22E00B0A25
:101920001EE0020A1CE0030A18E0080A10E0010A9F
:101930000CE00F0A08E0030A01E012000101188F11
:10194000080E006F120032EF0BF0F9EF0AF0010100
:10195000010E166F010E176F0CD06FEF0BF0CFEF6B
:101960000CF034510101166F176B020E1627010E91
:1019700017231881010E196F188F12000101188F9B
:1019800004013451EA6A020FE96E010EEA2232C400
:10199000EFFF120006D9020E6DEF0DF01200ABD86A
:1019A000050EE1260401320510E130511F0B00093C
:1019B0000CE10101188F030E0401315D04E1010106
:1019C000010E246F02D00101246B0401325101E0A9
:1019D00074D030511F0B020870E134510F0B000915
:1019E0006CE034510F0B020868E3200E0101005D2A
:1019F00064E1188F040134BF04D04BD9CCD8D7D8B8
:101A000003D04CD9C8D8D7D8EA22020EEFCFDBFFDB
:101A100008D9010B03E1000EDF9401D0DF8434BF4D
:101A200002D037D901D03AD9EA22DECFEEFFDDCF9E
:101A3000EDFF030E315D0CE139D907E034BF02D070
:101A4000B6D801D0B8D8EA22EF82840E6AD935D050
:101A5000DF742CD906E045D8EF9E43D8EF8C08D927
:101A600002D03FD8EF8CDF74DCD8020B02E11ED924
:101A70000DE0040134BF02D09AD801D09CD8EA22EC
:101A8000EF923B0E106E3ED9F3D802D03B0E3AD9FE
:101A9000040134510F0B116A700F106E0F0E1122DA
:101AA000030E10C0DBFF040E11C0DBFF030EDBCF03
:101AB000E9FF040EDBCFEAFFEF90050EE15C02E2E6
:101AC000E16AE552E16E1CD021D9C8D81DEF0EF0B5
:101AD000FE0EEA6ADB3463EF0EF0E66EE66A71EF43
:101AE0000EF0DECFE9FFDDCFEAFF12000EC1E9FF05
:101AF0000FC1EAFF1200D9CFE6FFE1CFD9FF1200F4
:101B0000E552E7CFD9FF120034510F0BE96EEA6AB4
:101B1000D890E936EA36120004C1E9FF05C1EAFFB0
:101B20001200FAD8380EEE6E040EED6E1200E66E5C
:101B3000AAEC14F0106E050EE15E10501200FE0EBD
:101B4000EA6ADB346AEF0EF0FD0EDB50E824126E19
:101B5000FE0EDB50040DF35012241200DF50CDD8DE
:101B6000EA22EF6ADF50C4D8EA22EF6ADF2A1200C5
:101B7000EA22EE50EFCFEAFFE96E1200E66E22C1D4
:101B8000E9FF23C1EAFF222B000E2323E552E75091
:101B9000EF6EDF061200EA22EECFDEFFEDCFDDFFB3
:101BA0001200000EE66EE66AE66EE66A1200345136
:101BB0000F0B78EF0EF034510F0B7DEF0EF011226A
:101BC00010C0DEFF11C0DDFF1200FE0EDBCFE6FF0E
:101BD000FAEC09F0E552E5521200F7220900F5CFC0
:101BE00016F10A00F5CF17F11200160E6F6E9F0E58
:101BF0006B6E7B0E696E1200010EE66EE66A000ED9
:101C0000E66EE66A1200F76A1625F66E1751F7229D
:101C1000080012003251F66EF76AD890F636F736A1
:101C20001200D950020FE96EDACFEAFFEF5012002E
:101C3000020EE66EE66AE66A120006C1E9FF07C117
:101C4000EAFF1200040DF3CF10F0F4CF11F0000EF4
:101C50001026040EB4DF840E91EF0EF05DD8300E26
:101C6000EE6E040EED6E120046DF020EE12612004B
:101C7000020EE66EE66ADECFE6FFDDCFE6FF050E7A
:101C80006DEF0DF021DF8C0EEF6E30DF840EEF6E06
:101C900012003ADF080EE926010E120035DF0E0EA3
:101CA000E926010E120014DFB8EF0DF01ADFEF5035
:101CB000800B1200BDDF710EE66E0F0E97EF0DF078
:101CC0001ADFE6521200FE0BEA36E96E0E0EE92626
:101CD000010E1200FE0BEA36E96E080EE926010E2F
:101CE000120065EC0FF0106E060EE15E105012004F
:101CF000EA6A2C0FE96E010E1200EA6A290FE96EFA
:101D0000010E1200EEDEE850EF16120096DFEE52E2
:101D1000080EEF6E1DEF0EF0020EE926000EEA220D
:0A1D20001200DFDEE850EF1212009F
:061D2A00ACDA1100D8CF75
:101D3000E4FFE0CFE4FFE46EA5DAE550E5CFE0FF95
:101D4000E5CFD8FF10000F0EC11202D81CEF08F02B
:101D500074DAE65219D8DF6ADF50106E116A400E4D
:101D6000105C000E115809E2DF50EA6A600FE96E5C
:101D7000000EEA22EF6ADF2AEFD70001E06BE16B89
:101D8000E36BE46BE5525ED258DAE652948E949C93
:101D9000240EAC6E900EAB6E710EAF6E020EB06E76
:101DA000080EB86EAE50DF6EE5524CD246DAFE0E2B
:101DB000DB50AD6E47D241DA040EE126D880000E2A
:101DC00005018755C20E8855010E8955000E8A55AA
:101DD0003CE387C580F588C581F589C582F58AC54C
:101DE00083F5146A1B0E156EB70E166E176A14C0B3
:101DF00004F015C005F0066E17C007F080C509F0A5
:101E000081C50AF082C50BF083C50CF0D2EC14F04A
:101E100004C010F005C011F006C012F007C013F0A6
:101E20001006000E115A125A135A10C0DFFF010E8D
:101E300011C0DBFF020E12C0DBFF030E13C0DBFF7D
:101E4000DF50AF6E010EDB50B06E040EE15C02E2BB
:101E5000E16AE552E16EF6D1F0D9E652ABA205D0C7
:101E6000AB98AE50DF6EAB8802D0AE50DF6EDF5065
:101E7000E552E8D112001200120012005EEF11F0DC
:101E80001200AEEF11F0010124051EE1010125054C
:101E90001BE1F1DF6D920101256B0001100EEB6F6C
:101EA0000E0EEC6FEB07000EEC5BEB51EC11FAE160
:101EB0006D84080EEB6F070EEC6FEB07000EEC5B0A
:101EC000EB51EC11FAE16D941200B7D9FD0EDBCFA6
:101ED00006F0FE0EDBCF07F0050E061801E10750F5
:101EE00036E0E868061802E17F0E07182FE0030EBF
:101EF000061801E1075028E0020E061801E107501C
:101F000021E0010E061801E107501AE0740E0618D0
:101F100001E1075013E0750E061801E107500CE0CF
:101F2000730E061801E1075005E0720E06180FE166
:101F300007500DD0A1DF0BD09DDF09D09CDF07D06B
:101F4000A0DF05D09DDF03D099DF01D096DF010E21
:101F500079D173D9020EE12690D9E8AE02D0E734E8
:101F600002D0E750005D1DE36D50020B1AE1010144
:101F7000365115E1D9CFE9FFDACFEAFF0A0EEE6E4E
:101F8000EE6A020EE66ED9CFE6FFDACFE6FF81D920
:101F900006E04B0EDF5C03E10001010EEE6F7AEC10
:101FA00012F0020EE15C02E2E16AE552E16E4AD112
:101FB00064D9E8AE02D0E73402D0E750005D03E315
:101FC0006D50020B03E0160EF36E10D00101365176
:101FD0000FE1060EE66EE50EE66E000EE66E59D9CE
:101FE00007E03B0E0001E75D03E1F36AF46A1200CB
:101FF0007AEF12F0010E2AD1500E28D13C0E26D1D4
:10200000460E24D11AD939D9E8AE02D0E73402D02D
:10201000E750005D15E36D50020B12E101013651EE
:102020000DE13ED9C4EC14F0E552E552F350E66EF2
:1020300037D92DEC12F0E552E552E5527AEC12F068
:1020400001D1FBD8240EE126D9CFE9FFDACFEAFF90
:10205000780EEE6E0A0EEE6EEE6A030EDB6A040E6A
:10206000DB6AD9500A0FE96EDACFEAFF780EEE6E1E
:10207000EE6EEE6EEE6EEE6EEE6E65DE9380938229
:10208000050EE66E53EC15F0E552EFD87EEC08F045
:102090000001EE510AE14B0EDF6EAEDFE6D859DFEC
:1020A0007EEC08F00001EE51F6E0EE51EFE07EEC40
:1020B00008F0E3D8E8AE02D0E73402D0E750005D84
:1020C000F6E36D50020BF3E173DFF3CF10F0F4CFC2
:1020D00011F0F350F410F8E1A20EF36E050EF3CFF9
:1020E000DBFF65EC15F0080EF36E030EF3CFDBFF9C
:1020F000800EF36E040EF3CFDBFFDBCFE6FF030EA3
:10210000DBCFE6FFF6EC14F0E552E552310EC86E77
:102110005EEC15F0C580C5B0FED7060EDB6A140E66
:10212000F36E060EDBCFF4FFF350F45C11E2D950EE
:10213000100F106EDACF11F0060EDB500F011024D5
:10214000E96E000EDA20EA6EEF6A060EDB2AE7D7A8
:10215000070EC9CFDBFF050EDBCFE6FF7CD804E11D
:10216000070EC9CFDBFFC69E080EDB50F4E10A0E56
:10217000E5C0DBFF0B0EE6C0DBFF0C0EE7C0DBFFAC
:102180000D0EE8C0DBFF0E0EE9C0DBFF0F0EEAC04C
:10219000DBFFD9500A0FE66E000EDA20E66EFBEC8C
:1021A00013F0E552E5520009F4E15EEC15F0C5824A
:1021B000C5B2FED75EEC15F0070EC9CFDBFFA20E4D
:1021C000F36E050EF3CFDBFF050EDB500109E66E63
:1021D00042D804E1070EC9CFDBFFC69E080EDB50D4
:1021E000F3E1140EE66E63D836EC14F0E552E552D6
:1021F000E5520009F6E10A0EF36E220EF3CFDBFF83
:10220000230EDB6A5EEC15F0C58AC588C5B8FED71B
:10221000C584C5B4FED7C5B8FED77EEC08F047D854
:10222000F1DEE552E5527EEC08F0C582C5B2FED77C
:102230005EEC15F065EC15F03AD7D9CFE6FFE1CFAB
:10224000D9FF1200E552E7CFD9FF1200E66E11EC7C
:1022500015F0E552120071EC14F0E552E76E080E2D
:10226000E7CFDBFFDB50FF081200D9CFE6FFDACF64
:10227000E6FFC8DEE552E5521200200E0101E76ECE
:1022800000191200DACFE4FFE652E552E5CFDAFF9B
:102290001200EEEC11F0E552E552E5520009120091
:1022A000FD0EDBCFE6FFFE0EDBCFE6FF1200D950BE
:0C22B000100FE66E000EDA20E66E120041
:0422BC000401305198
:1022C0001F0B010801E012003051600BE842E842A8
:1022D000E842E842E842010801E01200345103E01C
:1022E000340501E012003151220A33E0030A26E0EE
:1022F000010A15E0210A0DE0010A01E012000101C6
:10230000460E166F010E176F080E196F1A6B1881A3
:1023100023D00101460E166F010E176F1DD036C473
:102320001EF137C41FF10101870E1B6F050E1C6FD4
:10233000B60E206F1D0E216F1D8F12000101800E41
:10234000166F050E176F070E196F1A6BC10E186FF7
:10235000120032C441F10101188F12000501806B97
:102360004B0E816F826B836B846B856B080E866F5F
:102370000101356B1A0EE66E010EE66E19EC09F0DE
:10238000E552E5521E0EE66E020EE66E19EC09F0FD
:10239000E552E5521CD901013F6B406B366B1200D0
:1023A00041D96CD9050E061801E1075002E0000E74
:1023B00014D048D901013D51101804E13E511118C3
:1023C00001E105D93FD901013F51101805E1405104
:1023D000111802E1366B3B6B010E29D123D90101A3
:1023E000356B3D513E1102E1000E05D039D9EF5059
:1023F000800B01E0010E00092DE1FC0EDBCF10F097
:102400002FD9EE52EF50D880105405E229D9EE5260
:10241000FC0EEFCFDBFF356BFC0EDB50355D19E2B8
:102420003551EA6A400FE96E050EEA22EF50E66E7A
:102430003551E76EFD0EDBCFE9FFFE0EDBCFEAFF85
:10244000E750E926000EEA22E552E750EF6E352B01
:10245000E3D7BDD801013551EAD0E4D801013651A6
:1024600007E1E9D8FC0EDBCF3BF1010E3C6F366F84
:10247000DED00BD917E1C0D8ECD802E111500BE047
:10248000010EDBCFE9FFDB2A020EDBCFEAFF01E31F
:10249000DB2AEF50F1E1CFD8DFCF3BF10101010E94
:1024A0003C6F366F030EE15C02E2E16AE552E16ED9
:1024B000BED0EBD818E1A0D8CCD802E111500CE086
:1024C000010EDBCFF6FFDB2A020EDBCFF7FF01E3C5
:1024D000DB2A0800F550F0E1AED8DFCF3BF1010177
:1024E0003C6B010E366F030EE15C02E2E16AE552DD
:1024F000E16E9DD097D8020EE12601013F514011B7
:1025000002E1000E08D03FC1E9FF40C1EAFFEF50F1
:10251000800B01E0010E000953E1030E365D01E17D
:10252000366B36514DE0020E365D09E1E66A000E6B
:10253000E66EE66A59D80101030E366F41D03605C2
:102540003FE1400E106E116A3B51105C000E1158B5
:1025500003E2400EDF6E02D03BC1DFFFDF503B5D88
:102560003B6F000E396F050E3A6F010EDFCFDBFFB8
:102570003C510BE1010EDB5012E037C1F6FF38C1D0
:10258000F7FF0800F55041D8F5D7010EDB5007E002
:1025900037C1E9FF38C1EAFFEF5037D8F6D701015C
:1025A0003B5107E1400EDF5C02E1020E01D0030E59
:1025B000366FDFCFE6FF000EE66E050EE66E14D82E
:1025C000020EE15C02E2E16AE552E16E30D0400EBB
:1025D000E66E400EE66E050EE66EE66A46D8F3CF6E
:1025E0003DF1F4CF3EF11200010EE66E3ED8F3CF7E
:1025F0003FF1F4CF40F11200DF6A40D8DE5206C04E
:10260000DEFF07C0DDFFDD52120039C1E9FF3AC12C
:10261000EAFFEF6E392B000E3A23372B3823010ED9
:10262000DB061200D9CFE6FFE1CFD9FF1200E55259
:10263000E7CFD9FF1200FD0EDBCF37F1FE0EDBCF67
:1026400038F11200FB0EDBCF10F0FC0EDBCF11F0E7
:102650001200DF2ADF50106E116AFF0E10181200F0
:102660003DC1E9FF3EC1EAFF1200020EE66E3DECFD
:1026700009F0106E050EE15E10501200FD0EDBCF6A
:1026800006F0FE0EDBCF07F01200CCDF030EE126D2
:06269000010136511200A9
:0A2696001201000202000008D8043F
:1026A0000A0000010102000109024300020100C00A
:1026B0003209040000010202010005240010010497
:1026C00024020205240600010524010001070581FA
:1026D000030A000109040100020A000000070502C4
:1026E0000240000007058202400000040309043490
:1026F000034D006900630072006F006300680069A9
:10270000007000200054006500630068006E006FD8
:10271000006C006F0067007900200049006E0063C4
:10272000002E002C034D004900430052004F00438F
:10273000004F004E00540052004F004C0041004436
:10274000004F005200450053002D0043000000A838
:0727500026EB26EF262327EC
:082758002A0EF66E100EF76E5A
:10276000000EF86E01010900F550536F0900F55095
:10277000546F03E1536701D03DD00900F5504E6F0F
:102780000900F5504F6F0900F550506F090009001E
:10279000F550E96E0900F550EA6E090009000900DC
:1027A000F550516F0900F550526F09000900F6CF3E
:1027B00055F1F7CF56F1F8CF57F14EC1F6FF4FC1A3
:1027C000F7FF50C1F8FF0101515302E1525307E0F6
:1027D0000900F550EE6E5107F8E25207F9D755C1DE
:1027E000F6FF56C1F7FF57C1F8FF01015307000E6E
:0627F000545BBFD712008C
:0A27F600D9CFE6FFDACFE6FFE1CF0E
:10280000D9FFE2CFDAFFE65229D820E0C6A60AD0E7
:1028100025D8E66E71EC14F0E552DF6EDF5010E063
:10282000DF5015D09E961AD8C96EC6889EA6FED7D0
:10283000C650100B05E0C750010B02E1FE0E07D099
:10284000FC0EDB2AFD0EE0E3DB2ADED7000EE552AC
:10285000E552E5CFDAFFE7CFD9FF1200FC0EDBCF60
:0C286000E9FFFD0EDBCFEAFFEF50120095
:04286C00D9CFE6FFDB
:10287000DACFE6FFE1CFD9FFE2CFDAFFFB0EDBCF05
:10288000F3FFDB06F350000925E046EC15F0E66E99
:10289000FC0EDBCFE9FFDB2AFD0EDBCFEAFF01E315
:1028A000DB2AE552E750EF6EC5B6FED7A1A602D0EF
:1028B000FF0E11D00F0EC614080804E00F0EC61448
:1028C0000B08DCE1FB0EDB50D9E0C59AC588C5A832
:1028D000D5D7FDD7000EE552E5CFDAFFE7CFD9FF18
:0228E0001200E4
:0E28E200D9CFE6FFDACFE6FFE1CFD9FFE2CF94
:1028F000DAFFFD0EDB50C96EC6AE02D0FF0E24D04B
:102900000F0EC61408080FE00F0EC6140B080BE0DC
:10291000C6889EA6FED7C750040B03E1C750010B23
:1029200010E0000E11D00F0EC614080804E00F0EC0
:10293000C6140B0809E1C7B0FED75EEC15F0C5ACB4
:1029400002D0FE0E01D0000EE552E5CFDAFFE7CF50
:04295000D9FF120099
:0C295400FE0EE3CFE9FFFF0EE3CFEAFF29
:10296000E9CFF3FFEACFF4FFFB0EE35003E1FC0EE7
:10297000E35009E0FB0EE30602E2FC0EE306FD0E67
:10298000E350EE6EF1D71200FE0EE3CFE9FFFF0E2B
:10299000E3CFEAFFF36AF46AEE5203E0F34AF42A63
:0429A000FBD712004F
:0C29A400036A026A016A006A200EE76EF6
:1029B000D89004360536063607360036013602361C
:1029C00003360950005C0A5001580B5002580C5055
:1029D000035809E30950005E0A50015A0B50025A8D
:0C29E0000C50035A042AE72EE4D7120022
:0429EC00D9CFE6FF5A
:1029F000DACFE6FFE1CFD9FFE2CFDAFF3F0EC7160D
:102A0000C66AC56AFD0EDB50C612FC0EDB50C7124B
:102A100093829380C68AE552E5CFDAFFE7CFD9FFEC
:022A20001200A2
:0E2A2200FF0EE350196EEF0E01D0F30EE76EBB
:102A3000E72E18EF15F00C0E186EE76AE72E1EEF62
:102A400015F0182E1DEF15F0192E16EF15F01200C7
:102A5000000EF36E00EE00F0080E01D81200EA60DE
:102A600002D0EE6AFCD7F350E9601200EE6AFCD7A0
:102A700013EE00F023EE00F0F86A0F9CACEC13F0BC
:0C2A800067EC15F021EC10F0FBD7120001
:042A8C000F0EC6144F
:102A9000080804E00F0EC6140B0801E1C586C7A0A4
:062AA000FED7C950120030
:0A2AA600FF0EE350E84E120000009E
:0C2AB00000D000D000D0E82EFAD71200B1
:042ABC001F0EC51410
:0A2AC000FDE1C750040BFAE112001B
:042ACA00C69A120096
:022ACE001200F4
:0C2AD000000000000078780078787800A2
:020000040030CA
:0100000024DB
:01000100CE30
:010002003FBE
:010003001EDE
:010005008179
:010006008178
:010008000FE8
:01000900C036
:01000A000FE6
:01000B00E014
:01000C000FE4
:01000D0040B2
:00000001FF
